{
    "abi": [
        {
            "inputs": [
                {
                    "internalType": "address",
                    "name": "_finder",
                    "type": "address"
                },
                {
                    "internalType": "address",
                    "name": "_currency",
                    "type": "address"
                },
                {
                    "internalType": "address",
                    "name": "_optimisticOracleV3",
                    "type": "address"
                }
            ],
            "stateMutability": "nonpayable",
            "type": "constructor"
        },
        {
            "anonymous": false,
            "inputs": [
                {
                    "indexed": true,
                    "internalType": "bytes32",
                    "name": "marketId",
                    "type": "bytes32"
                },
                {
                    "indexed": true,
                    "internalType": "address",
                    "name": "account",
                    "type": "address"
                },
                {
                    "indexed": false,
                    "internalType": "uint256",
                    "name": "tokensCreated",
                    "type": "uint256"
                }
            ],
            "name": "TokensCreated",
            "type": "event"
        },
        {
            "anonymous": false,
            "inputs": [
                {
                    "indexed": true,
                    "internalType": "bytes32",
                    "name": "marketId",
                    "type": "bytes32"
                },
                {
                    "indexed": true,
                    "internalType": "address",
                    "name": "account",
                    "type": "address"
                },
                {
                    "indexed": false,
                    "internalType": "uint256",
                    "name": "tokensRedeemed",
                    "type": "uint256"
                }
            ],
            "name": "TokensRedeemed",
            "type": "event"
        },
        {
            "anonymous": false,
            "inputs": [
                {
                    "indexed": true,
                    "internalType": "bytes32",
                    "name": "marketId",
                    "type": "bytes32"
                },
                {
                    "indexed": true,
                    "internalType": "address",
                    "name": "account",
                    "type": "address"
                },
                {
                    "indexed": false,
                    "internalType": "uint256",
                    "name": "payout",
                    "type": "uint256"
                },
                {
                    "indexed": false,
                    "internalType": "uint256",
                    "name": "outcome1Tokens",
                    "type": "uint256"
                },
                {
                    "indexed": false,
                    "internalType": "uint256",
                    "name": "outcome2Tokens",
                    "type": "uint256"
                }
            ],
            "name": "TokensSettled",
            "type": "event"
        },
        {
            "anonymous": false,
            "inputs": [
                {
                    "indexed": true,
                    "internalType": "bytes32",
                    "name": "marketId",
                    "type": "bytes32"
                },
                {
                    "indexed": false,
                    "internalType": "string",
                    "name": "assertedOutcome",
                    "type": "string"
                },
                {
                    "indexed": true,
                    "internalType": "bytes32",
                    "name": "assertionId",
                    "type": "bytes32"
                }
            ],
            "name": "contentAsserted",
            "type": "event"
        },
        {
            "anonymous": false,
            "inputs": [
                {
                    "indexed": true,
                    "internalType": "bytes32",
                    "name": "contentId",
                    "type": "bytes32"
                },
                {
                    "indexed": false,
                    "internalType": "string",
                    "name": "outcome1",
                    "type": "string"
                },
                {
                    "indexed": false,
                    "internalType": "string",
                    "name": "outcome2",
                    "type": "string"
                },
                {
                    "indexed": false,
                    "internalType": "string",
                    "name": "criteria",
                    "type": "string"
                },
                {
                    "indexed": false,
                    "internalType": "address",
                    "name": "outcome1Token",
                    "type": "address"
                },
                {
                    "indexed": false,
                    "internalType": "address",
                    "name": "outcome2Token",
                    "type": "address"
                },
                {
                    "indexed": false,
                    "internalType": "uint256",
                    "name": "reward",
                    "type": "uint256"
                },
                {
                    "indexed": false,
                    "internalType": "uint256",
                    "name": "requiredBond",
                    "type": "uint256"
                },
                {
                    "indexed": false,
                    "internalType": "uint256",
                    "name": "disputeTreshold",
                    "type": "uint256"
                }
            ],
            "name": "contentInitialized",
            "type": "event"
        },
        {
            "anonymous": false,
            "inputs": [
                {
                    "indexed": true,
                    "internalType": "bytes32",
                    "name": "marketId",
                    "type": "bytes32"
                }
            ],
            "name": "contentResolved",
            "type": "event"
        },
        {
            "inputs": [
                {
                    "internalType": "bytes32",
                    "name": "contentId",
                    "type": "bytes32"
                },
                {
                    "internalType": "string",
                    "name": "assertedOutcome",
                    "type": "string"
                }
            ],
            "name": "assertContent",
            "outputs": [
                {
                    "internalType": "bytes32",
                    "name": "assertionId",
                    "type": "bytes32"
                }
            ],
            "stateMutability": "nonpayable",
            "type": "function"
        },
        {
            "inputs": [
                {
                    "internalType": "bytes32",
                    "name": "assertionId",
                    "type": "bytes32"
                }
            ],
            "name": "assertionDisputedCallback",
            "outputs": [],
            "stateMutability": "nonpayable",
            "type": "function"
        },
        {
            "inputs": [],
            "name": "assertionLiveness",
            "outputs": [
                {
                    "internalType": "uint64",
                    "name": "",
                    "type": "uint64"
                }
            ],
            "stateMutability": "view",
            "type": "function"
        },
        {
            "inputs": [
                {
                    "internalType": "bytes32",
                    "name": "assertionId",
                    "type": "bytes32"
                },
                {
                    "internalType": "bool",
                    "name": "assertedTruthfully",
                    "type": "bool"
                }
            ],
            "name": "assertionResolvedCallback",
            "outputs": [],
            "stateMutability": "nonpayable",
            "type": "function"
        },
        {
            "inputs": [
                {
                    "internalType": "bytes32",
                    "name": "",
                    "type": "bytes32"
                }
            ],
            "name": "asserts",
            "outputs": [
                {
                    "internalType": "address",
                    "name": "asserter",
                    "type": "address"
                },
                {
                    "internalType": "bytes32",
                    "name": "contentId",
                    "type": "bytes32"
                }
            ],
            "stateMutability": "view",
            "type": "function"
        },
        {
            "inputs": [
                {
                    "internalType": "bytes32",
                    "name": "",
                    "type": "bytes32"
                }
            ],
            "name": "contents",
            "outputs": [
                {
                    "internalType": "bool",
                    "name": "resolved",
                    "type": "bool"
                },
                {
                    "internalType": "bytes32",
                    "name": "assertedOutcomeId",
                    "type": "bytes32"
                },
                {
                    "internalType": "contract ExpandedIERC20",
                    "name": "outcome1Token",
                    "type": "address"
                },
                {
                    "internalType": "contract ExpandedIERC20",
                    "name": "outcome2Token",
                    "type": "address"
                },
                {
                    "internalType": "uint256",
                    "name": "reward",
                    "type": "uint256"
                },
                {
                    "internalType": "uint256",
                    "name": "requiredBond",
                    "type": "uint256"
                },
                {
                    "internalType": "bytes",
                    "name": "outcome1",
                    "type": "bytes"
                },
                {
                    "internalType": "bytes",
                    "name": "outcome2",
                    "type": "bytes"
                },
                {
                    "internalType": "bytes",
                    "name": "criteria",
                    "type": "bytes"
                },
                {
                    "internalType": "uint256",
                    "name": "assertTreshold",
                    "type": "uint256"
                },
                {
                    "internalType": "uint256",
                    "name": "valueTreshold",
                    "type": "uint256"
                }
            ],
            "stateMutability": "view",
            "type": "function"
        },
        {
            "inputs": [
                {
                    "internalType": "bytes32",
                    "name": "marketId",
                    "type": "bytes32"
                },
                {
                    "internalType": "uint256",
                    "name": "tokensToCreate",
                    "type": "uint256"
                }
            ],
            "name": "createOutcomeTokens",
            "outputs": [],
            "stateMutability": "nonpayable",
            "type": "function"
        },
        {
            "inputs": [],
            "name": "currency",
            "outputs": [
                {
                    "internalType": "contract IERC20",
                    "name": "",
                    "type": "address"
                }
            ],
            "stateMutability": "view",
            "type": "function"
        },
        {
            "inputs": [],
            "name": "defaultIdentifier",
            "outputs": [
                {
                    "internalType": "bytes32",
                    "name": "",
                    "type": "bytes32"
                }
            ],
            "stateMutability": "view",
            "type": "function"
        },
        {
            "inputs": [],
            "name": "finder",
            "outputs": [
                {
                    "internalType": "contract FinderInterface",
                    "name": "",
                    "type": "address"
                }
            ],
            "stateMutability": "view",
            "type": "function"
        },
        {
            "inputs": [
                {
                    "internalType": "bytes32",
                    "name": "marketId",
                    "type": "bytes32"
                }
            ],
            "name": "getMarket",
            "outputs": [
                {
                    "components": [
                        {
                            "internalType": "bool",
                            "name": "resolved",
                            "type": "bool"
                        },
                        {
                            "internalType": "bytes32",
                            "name": "assertedOutcomeId",
                            "type": "bytes32"
                        },
                        {
                            "internalType": "contract ExpandedIERC20",
                            "name": "outcome1Token",
                            "type": "address"
                        },
                        {
                            "internalType": "contract ExpandedIERC20",
                            "name": "outcome2Token",
                            "type": "address"
                        },
                        {
                            "internalType": "uint256",
                            "name": "reward",
                            "type": "uint256"
                        },
                        {
                            "internalType": "uint256",
                            "name": "requiredBond",
                            "type": "uint256"
                        },
                        {
                            "internalType": "bytes",
                            "name": "outcome1",
                            "type": "bytes"
                        },
                        {
                            "internalType": "bytes",
                            "name": "outcome2",
                            "type": "bytes"
                        },
                        {
                            "internalType": "bytes",
                            "name": "criteria",
                            "type": "bytes"
                        },
                        {
                            "internalType": "uint256",
                            "name": "assertTreshold",
                            "type": "uint256"
                        },
                        {
                            "internalType": "uint256",
                            "name": "valueTreshold",
                            "type": "uint256"
                        },
                        {
                            "internalType": "address[]",
                            "name": "token1yes",
                            "type": "address[]"
                        },
                        {
                            "internalType": "address[]",
                            "name": "token2yes",
                            "type": "address[]"
                        }
                    ],
                    "internalType": "struct UMASubjectiveSDK.Content",
                    "name": "",
                    "type": "tuple"
                }
            ],
            "stateMutability": "view",
            "type": "function"
        },
        {
            "inputs": [
                {
                    "internalType": "string",
                    "name": "outcome1",
                    "type": "string"
                },
                {
                    "internalType": "string",
                    "name": "outcome2",
                    "type": "string"
                },
                {
                    "internalType": "string",
                    "name": "criteria",
                    "type": "string"
                },
                {
                    "internalType": "uint256",
                    "name": "reward",
                    "type": "uint256"
                },
                {
                    "internalType": "uint256",
                    "name": "requiredBond",
                    "type": "uint256"
                },
                {
                    "internalType": "uint256",
                    "name": "disputeTreshold",
                    "type": "uint256"
                }
            ],
            "name": "initializeContent",
            "outputs": [
                {
                    "internalType": "bytes32",
                    "name": "contentId",
                    "type": "bytes32"
                }
            ],
            "stateMutability": "nonpayable",
            "type": "function"
        },
        {
            "inputs": [],
            "name": "oo",
            "outputs": [
                {
                    "internalType": "contract OptimisticOracleV3Interface",
                    "name": "",
                    "type": "address"
                }
            ],
            "stateMutability": "view",
            "type": "function"
        },
        {
            "inputs": [
                {
                    "internalType": "bytes32",
                    "name": "contentId",
                    "type": "bytes32"
                },
                {
                    "internalType": "uint256",
                    "name": "tokensToRedeem",
                    "type": "uint256"
                }
            ],
            "name": "redeemOutcomeTokens",
            "outputs": [],
            "stateMutability": "nonpayable",
            "type": "function"
        },
        {
            "inputs": [
                {
                    "internalType": "bytes32",
                    "name": "contentId",
                    "type": "bytes32"
                }
            ],
            "name": "settleOutcomeTokens",
            "outputs": [
                {
                    "internalType": "uint256",
                    "name": "payout",
                    "type": "uint256"
                }
            ],
            "stateMutability": "nonpayable",
            "type": "function"
        },
        {
            "inputs": [],
            "name": "unresolvable",
            "outputs": [
                {
                    "internalType": "bytes",
                    "name": "",
                    "type": "bytes"
                }
            ],
            "stateMutability": "view",
            "type": "function"
        }
    ],
    "bytecode": {
        "object": "0x6101006040523480156200001257600080fd5b5060405162004f2c38038062004f2c8339810160408190526200003591620000dc565b6001600160a01b0380841660805282811660a052811660c08190526040805163d509b01760e01b8152905163d509b017916004808201926020929091908290030181865afa1580156200008c573d6000803e3d6000fd5b505050506040513d601f19601f82011682018060405250810190620000b2919062000126565b60e0525062000140915050565b80516001600160a01b0381168114620000d757600080fd5b919050565b600080600060608486031215620000f257600080fd5b620000fd84620000bf565b92506200010d60208501620000bf565b91506200011d60408501620000bf565b90509250925092565b6000602082840312156200013957600080fd5b5051919050565b60805160a05160c05160e051614d50620001dc6000396000818161030501526120ca01526000818161018a0152818161072e015281816108c801528181611a73015261206c01526000818161032d015281816107030152818161086f015281816108a601528181610aee01528181610bc301528181610fd90152818161164901528181611bba01526120a6015260006102a30152614d506000f3fe60806040523480156200001157600080fd5b5060043610620001155760003560e01c8063b75d4e2411620000a3578063d509b017116200006e578063d509b01714620002ff578063e5a6b10f1462000327578063f1b156b2146200034f578063f20ca12c146200036657600080fd5b8063b75d4e241462000279578063b9a3c84c146200029d578063c3c95c7b14620002c5578063d448a4ec14620002eb57600080fd5b80639d5bacfd11620000e45780639d5bacfd14620001de578063acd98e2914620001f5578063b342f695146200020c578063b50458fe146200022357600080fd5b80630880c65a146200011a578063372ac631146200015e5780638921a61414620001845780639d2edf4614620001c5575b600080fd5b620001466040518060400160405280600c81526020016b556e7265736f6c7661626c6560a01b81525081565b6040516200015591906200265e565b60405180910390f35b620001756200016f3660046200271e565b62000396565b60405190815260200162000155565b620001ac7f000000000000000000000000000000000000000000000000000000000000000081565b6040516001600160a01b03909116815260200162000155565b620001dc620001d636600462002769565b62000987565b005b620001dc620001ef36600462002769565b62000b53565b62000175620002063660046200278c565b62000d17565b620001756200021d366004620027a6565b6200104e565b62000259620002343660046200278c565b600160208190526000918252604090912080549101546001600160a01b039091169082565b604080516001600160a01b03909316835260208301919091520162000155565b6200028361012c81565b60405167ffffffffffffffff909116815260200162000155565b620001ac7f000000000000000000000000000000000000000000000000000000000000000081565b620002dc620002d63660046200278c565b620016c6565b6040516200015591906200289a565b620001dc620002fc3660046200278c565b50565b620001757f000000000000000000000000000000000000000000000000000000000000000081565b620001ac7f000000000000000000000000000000000000000000000000000000000000000081565b620001dc62000360366004620029d5565b62001a68565b6200037d620003773660046200278c565b62001c6a565b604051620001559b9a9998979695949392919062002a08565b600082815260208190526040812060028101546001600160a01b0316620003fd5760405162461bcd60e51b815260206004820152601660248201527510dbdb9d195b9d08191bd95cc81b9bdd08195e1a5cdd60521b60448201526064015b60405180910390fd5b82516020840120600182015415620004585760405162461bcd60e51b815260206004820152601c60248201527f417373657274696f6e20616374697665206f72207265736f6c766564000000006044820152606401620003f4565b816006016040516200046b919062002ada565b60405180910390208114806200049a5750816007016040516200048f919062002ada565b604051809103902081145b80620004e9575060408051808201909152600c81526b556e7265736f6c7661626c6560a01b6020909101527fffa5c42fda42ac0bea9ca62d68dcc08a4b371f06b6e71afb99dee2ce276cbe4e81145b620005375760405162461bcd60e51b815260206004820152601860248201527f496e76616c6964206173736572746564206f7574636f6d6500000000000000006044820152606401620003f4565b816006016040516200054a919062002ada565b60405180910390208103620005a557600a8201546200056b90600162002b6e565b600a8301556000858152602081815260408220600b01805460018101825590835291200180546001600160a01b03191633179055620005d5565b6000858152602081815260408220600c01805460018101825590835291200180546001600160a01b031916331790555b60008581526020819052604090208254815460ff191660ff90911615151781556001808401549082015560028084015490820180546001600160a01b039283166001600160a01b031991821617909155600380860154908401805491909316911617905560048084015490820155600580840154908201558290600680820190620006639084018262002bd6565b50600781810190620006789084018262002bd6565b506008818101906200068d9084018262002bd6565b5060098201548160090155600a82015481600a0155600b820181600b01908054620006ba92919062002538565b50600c8281018054620006d1928401919062002538565b5050506009820154600a83015411156200097f5760018201819055604051634360af3d60e01b81526001600160a01b037f0000000000000000000000000000000000000000000000000000000000000000811660048301526000917f000000000000000000000000000000000000000000000000000000000000000090911690634360af3d90602401602060405180830381865afa15801562000778573d6000803e3d6000fd5b505050506040513d601f19601f820116820180604052508101906200079e919062002cc7565b9050600081846005015411620007b55781620007bb565b83600501545b905060006200085f87866008018054620007d59062002a9e565b80601f0160208091040260200160405190810160405280929190818152602001828054620008039062002a9e565b8015620008545780601f10620008285761010080835404028352916020019162000854565b820191906000526020600020905b8154815290600101906020018083116200083657829003601f168201915b505050505062001e82565b9050620008986001600160a01b037f00000000000000000000000000000000000000000000000000000000000000001633308562001ebd565b620008ee6001600160a01b037f0000000000000000000000000000000000000000000000000000000000000000167f00000000000000000000000000000000000000000000000000000000000000008462001f30565b620008fa818362002052565b60408051808201825233815260208082018c81526000858152600192839052849020925183546001600160a01b0319166001600160a01b039091161783555191015551909650869089907f3a7f3fed302ec36e0d027d2a3c11082de4bff2604c88462be68bc417aff203709062000973908b906200265e565b60405180910390a35050505b505092915050565b600082815260208190526040902060028101546001600160a01b0316620009ea5760405162461bcd60e51b815260206004820152601660248201527510dbdb9d195b9d08191bd95cc81b9bdd08195e1a5cdd60521b6044820152606401620003f4565b600281015460405163079cc67960e41b8152336004820152602481018490526001600160a01b03909116906379cc6790906044016020604051808303816000875af115801562000a3e573d6000803e3d6000fd5b505050506040513d601f19601f8201168201806040525081019062000a64919062002ce1565b50600381015460405163079cc67960e41b8152336004820152602481018490526001600160a01b03909116906379cc6790906044016020604051808303816000875af115801562000ab9573d6000803e3d6000fd5b505050506040513d601f19601f8201168201806040525081019062000adf919062002ce1565b5062000b166001600160a01b037f000000000000000000000000000000000000000000000000000000000000000016338462002142565b604051828152339084907f48bc562be531fa6322b3cb3a9333ca19d2e3c63c1793fcb5ce885d02d6e0226e906020015b60405180910390a3505050565b600082815260208190526040902060028101546001600160a01b031662000bb55760405162461bcd60e51b815260206004820152601560248201527413585c9ad95d08191bd95cc81b9bdd08195e1a5cdd605a1b6044820152606401620003f4565b62000bec6001600160a01b037f00000000000000000000000000000000000000000000000000000000000000001633308562001ebd565b60028101546040516340c10f1960e01b8152336004820152602481018490526001600160a01b03909116906340c10f19906044016020604051808303816000875af115801562000c40573d6000803e3d6000fd5b505050506040513d601f19601f8201168201806040525081019062000c66919062002ce1565b5060038101546040516340c10f1960e01b8152336004820152602481018490526001600160a01b03909116906340c10f19906044016020604051808303816000875af115801562000cbb573d6000803e3d6000fd5b505050506040513d601f19601f8201168201806040525081019062000ce1919062002ce1565b50604051828152339084907fa1a00dd4222724941c9d085479758183928d765e55583d239c414b0f09c5da4b9060200162000b46565b6000818152602081905260408120805460ff1662000d6f5760405162461bcd60e51b815260206004820152601460248201527310dbdb9d195b9d081b9bdd081c995cdbdb1d995960621b6044820152606401620003f4565b60028101546040516370a0823160e01b81523360048201526000916001600160a01b0316906370a0823190602401602060405180830381865afa15801562000dbb573d6000803e3d6000fd5b505050506040513d601f19601f8201168201806040525081019062000de1919062002cc7565b60038301546040516370a0823160e01b81523360048201529192506000916001600160a01b03909116906370a0823190602401602060405180830381865afa15801562000e32573d6000803e3d6000fd5b505050506040513d601f19601f8201168201806040525081019062000e58919062002cc7565b90508260060160405162000e6d919062002ada565b604051809103902083600101540362000e895781935062000ed5565b8260070160405162000e9c919062002ada565b604051809103902083600101540362000eb85780935062000ed5565b600262000ec6828462002b6e565b62000ed2919062002d01565b93505b600283015460405163079cc67960e41b8152336004820152602481018490526001600160a01b03909116906379cc6790906044016020604051808303816000875af115801562000f29573d6000803e3d6000fd5b505050506040513d601f19601f8201168201806040525081019062000f4f919062002ce1565b50600383015460405163079cc67960e41b8152336004820152602481018390526001600160a01b03909116906379cc6790906044016020604051808303816000875af115801562000fa4573d6000803e3d6000fd5b505050506040513d601f19601f8201168201806040525081019062000fca919062002ce1565b50620010016001600160a01b037f000000000000000000000000000000000000000000000000000000000000000016338662002142565b6040805185815260208101849052908101829052339086907f25ffdbe909949aba86fccc6c8a3f5d94d7ab78bc67a3cc1327908845235874eb9060600160405180910390a3505050919050565b600080875111620010985760405162461bcd60e51b8152602060048201526013602482015272456d707479206669727374206f7574636f6d6560681b6044820152606401620003f4565b6000865111620010e25760405162461bcd60e51b8152602060048201526014602482015273456d707479207365636f6e64206f7574636f6d6560601b6044820152606401620003f4565b8580519060200120878051906020012003620011395760405162461bcd60e51b81526020600482015260156024820152744f7574636f6d657320617265207468652073616d6560581b6044820152606401620003f4565b6000855111620011805760405162461bcd60e51b815260206004820152601160248201527022b6b83a3c903232b9b1b934b83a34b7b760791b6044820152606401620003f4565b43856040516020016200119592919062002d24565b60408051601f1981840301815291815281516020928301206000818152928390529120600201549091506001600160a01b0316156200120f5760405162461bcd60e51b81526020600482015260156024820152744d61726b657420616c72656164792065786973747360581b6044820152606401620003f4565b60008760405160200162001224919062002d3f565b604051602081830303815290604052601260405162001243906200258d565b6200125092919062002d6b565b604051809103906000f0801580156200126d573d6000803e3d6000fd5b50905060008760405160200162001285919062002d3f565b6040516020818303038152906040526012604051620012a4906200258d565b620012b192919062002daf565b604051809103906000f080158015620012ce573d6000803e3d6000fd5b50604051634c1d96ab60e11b81523060048201529091506001600160a01b0383169063983b2d5690602401600060405180830381600087803b1580156200131457600080fd5b505af115801562001329573d6000803e3d6000fd5b5050604051634c1d96ab60e11b81523060048201526001600160a01b038416925063983b2d569150602401600060405180830381600087803b1580156200136f57600080fd5b505af115801562001384573d6000803e3d6000fd5b5050604051637a231bdd60e11b81523060048201526001600160a01b038516925063f44637ba9150602401600060405180830381600087803b158015620013ca57600080fd5b505af1158015620013df573d6000803e3d6000fd5b5050604051637a231bdd60e11b81523060048201526001600160a01b038416925063f44637ba9150602401600060405180830381600087803b1580156200142557600080fd5b505af11580156200143a573d6000803e3d6000fd5b50505050604051806101a001604052806000151581526020016000801b8152602001836001600160a01b03168152602001826001600160a01b031681526020018781526020018681526020018a815260200189815260200188815260200185815260200160008152602001600067ffffffffffffffff811115620014c257620014c262002673565b604051908082528060200260200182016040528015620014ec578160200160208202803683370190505b50815260200160006040519080825280602002602001820160405280156200151e578160200160208202803683370190505b509052600084815260208181526040918290208351815490151560ff19909116178155908301516001820155908201516002820180546001600160a01b039283166001600160a01b03199182161790915560608401516003840180549190931691161790556080820151600482015560a0820151600582015560c08201516006820190620015ad908262002df3565b5060e08201516007820190620015c4908262002df3565b506101008201516008820190620015dc908262002df3565b506101208201516009820155610140820151600a82015561016082015180516200161191600b8401916020909101906200259b565b5061018082015180516200163091600c8401916020909101906200259b565b5050861590506200167257620016726001600160a01b037f00000000000000000000000000000000000000000000000000000000000000001633308962001ebd565b827f6290aace9e7c43332d5f8f6bf171f7cf74da3cac367bd7147e6fd810d231e5ee8a8a8a86868c8c8c604051620016b298979695949392919062002eb9565b60405180910390a250509695505050505050565b62001749604051806101a001604052806000151581526020016000801916815260200160006001600160a01b0316815260200160006001600160a01b031681526020016000815260200160008152602001606081526020016060815260200160608152602001600081526020016000815260200160608152602001606081525090565b6000828152602081815260409182902082516101a081018452815460ff161515815260018201549281019290925260028101546001600160a01b03908116938301939093526003810154909216606082015260048201546080820152600582015460a082015260068201805491929160c084019190620017c99062002a9e565b80601f0160208091040260200160405190810160405280929190818152602001828054620017f79062002a9e565b8015620018485780601f106200181c5761010080835404028352916020019162001848565b820191906000526020600020905b8154815290600101906020018083116200182a57829003601f168201915b50505050508152602001600782018054620018639062002a9e565b80601f0160208091040260200160405190810160405280929190818152602001828054620018919062002a9e565b8015620018e25780601f10620018b657610100808354040283529160200191620018e2565b820191906000526020600020905b815481529060010190602001808311620018c457829003601f168201915b50505050508152602001600882018054620018fd9062002a9e565b80601f01602080910402602001604051908101604052809291908181526020018280546200192b9062002a9e565b80156200197c5780601f1062001950576101008083540402835291602001916200197c565b820191906000526020600020905b8154815290600101906020018083116200195e57829003601f168201915b5050505050815260200160098201548152602001600a8201548152602001600b8201805480602002602001604051908101604052809291908181526020018280548015620019f457602002820191906000526020600020905b81546001600160a01b03168152600190910190602001808311620019d5575b50505050508152602001600c820180548060200260200160405190810160405280929190818152602001828054801562001a5857602002820191906000526020600020905b81546001600160a01b0316815260019091019060200180831162001a39575b5050505050815250509050919050565b336001600160a01b037f0000000000000000000000000000000000000000000000000000000000000000161462001ad35760405162461bcd60e51b815260206004820152600e60248201526d139bdd08185d5d1a1bdc9a5e995960921b6044820152606401620003f4565b60008281526001602081815260408084209092015483528290529020811562001c3e57805460ff1916600117815560048101541562001bfc57600b810154600482015460009162001b249162002d01565b90506000811162001b785760405162461bcd60e51b815260206004820152601e60248201527f52657761726420746f6f20736d616c6c20746f206469737472696275746500006044820152606401620003f4565b60005b600b83015481101562001bf95762001be483600b01828154811062001ba45762001ba462002f33565b6000918252602090912001546001600160a01b037f0000000000000000000000000000000000000000000000000000000000000000811691168462002142565b8062001bf08162002f49565b91505062001b7b565b50505b600083815260016020819052604080832090910154905190917f5469255b9e0676830b72ec370461fe0911ee61e3c6e6f699d94593278e82cece91a262001c46565b600060018201555b50506000908152600160208190526040822080546001600160a01b03191681550155565b600060208190529081526040902080546001820154600283015460038401546004850154600586015460068701805460ff9097169795966001600160a01b039586169694909516949293919262001cc19062002a9e565b80601f016020809104026020016040519081016040528092919081815260200182805462001cef9062002a9e565b801562001d405780601f1062001d145761010080835404028352916020019162001d40565b820191906000526020600020905b81548152906001019060200180831162001d2257829003601f168201915b50505050509080600701805462001d579062002a9e565b80601f016020809104026020016040519081016040528092919081815260200182805462001d859062002a9e565b801562001dd65780601f1062001daa5761010080835404028352916020019162001dd6565b820191906000526020600020905b81548152906001019060200180831162001db857829003601f168201915b50505050509080600801805462001ded9062002a9e565b80601f016020809104026020016040519081016040528092919081815260200182805462001e1b9062002a9e565b801562001e6c5780601f1062001e405761010080835404028352916020019162001e6c565b820191906000526020600020905b81548152906001019060200180831162001e4e57829003601f168201915b50505050509080600901549080600a015490508b565b606062001e8f4262002174565b838360405160200162001ea59392919062002f65565b60405160208183030381529060405290505b92915050565b6040516001600160a01b038085166024830152831660448201526064810182905262001f2a9085906323b872dd60e01b906084015b60408051601f198184030181529190526020810180516001600160e01b03166001600160e01b031990931692909217909152620022bc565b50505050565b80158062001fae5750604051636eb1769f60e11b81523060048201526001600160a01b03838116602483015284169063dd62ed3e90604401602060405180830381865afa15801562001f86573d6000803e3d6000fd5b505050506040513d601f19601f8201168201806040525081019062001fac919062002cc7565b155b6200201b5760405162461bcd60e51b815260206004820152603660248201527f5361666545524332303a20617070726f76652066726f6d206e6f6e2d7a65726f60448201527520746f206e6f6e2d7a65726f20616c6c6f77616e636560501b6064820152608401620003f4565b6040516001600160a01b0383166024820152604481018290526200204d90849063095ea7b360e01b9060640162001ef2565b505050565b604051636457c97960e01b81526000906001600160a01b037f00000000000000000000000000000000000000000000000000000000000000001690636457c97990620020f590869033903090879061012c907f0000000000000000000000000000000000000000000000000000000000000000908b907f000000000000000000000000000000000000000000000000000000000000000090859060040162003042565b6020604051808303816000875af115801562002115573d6000803e3d6000fd5b505050506040513d601f19601f820116820180604052508101906200213b919062002cc7565b9392505050565b6040516001600160a01b0383166024820152604481018290526200204d90849063a9059cbb60e01b9060640162001ef2565b6060816000036200219c5750506040805180820190915260018152600360fc1b602082015290565b8160005b8115620021cc5780620021b38162002f49565b9150620021c49050600a8362002d01565b9150620021a0565b60008167ffffffffffffffff811115620021ea57620021ea62002673565b6040519080825280601f01601f19166020018201604052801562002215576020820181803683370190505b509050815b8515620022b3576200222e600182620030b2565b905060006200223f600a8862002d01565b6200224c90600a620030c8565b620022589088620030b2565b62002265906030620030ea565b905060008160f81b90508084848151811062002285576200228562002f33565b60200101906001600160f81b031916908160001a905350620022a9600a8962002d01565b975050506200221a565b50949350505050565b600062002313826040518060400160405280602081526020017f5361666545524332303a206c6f772d6c6576656c2063616c6c206661696c6564815250856001600160a01b0316620023959092919063ffffffff16565b8051909150156200204d578080602001905181019062002334919062002ce1565b6200204d5760405162461bcd60e51b815260206004820152602a60248201527f5361666545524332303a204552433230206f7065726174696f6e20646964206e6044820152691bdd081cdd58d8d9595960b21b6064820152608401620003f4565b6060620023a68484600085620023ae565b949350505050565b606082471015620024115760405162461bcd60e51b815260206004820152602660248201527f416464726573733a20696e73756666696369656e742062616c616e636520666f6044820152651c8818d85b1b60d21b6064820152608401620003f4565b600080866001600160a01b031685876040516200242f919062003106565b60006040518083038185875af1925050503d80600081146200246e576040519150601f19603f3d011682016040523d82523d6000602084013e62002473565b606091505b5091509150620024868783838762002491565b979650505050505050565b6060831562002505578251600003620024fd576001600160a01b0385163b620024fd5760405162461bcd60e51b815260206004820152601d60248201527f416464726573733a2063616c6c20746f206e6f6e2d636f6e74726163740000006044820152606401620003f4565b5081620023a6565b620023a683838151156200251c5781518083602001fd5b8060405162461bcd60e51b8152600401620003f491906200265e565b8280548282559060005260206000209081019282156200257b5760005260206000209182015b828111156200257b5782548255916001019190600101906200255e565b5062002589929150620025f3565b5090565b611bf6806200312583390190565b8280548282559060005260206000209081019282156200257b579160200282015b828111156200257b57825182546001600160a01b0319166001600160a01b03909116178255602090920191600190910190620025bc565b5b80821115620025895760008155600101620025f4565b60005b83811015620026275781810151838201526020016200260d565b50506000910152565b600081518084526200264a8160208601602086016200260a565b601f01601f19169290920160200192915050565b6020815260006200213b602083018462002630565b634e487b7160e01b600052604160045260246000fd5b600082601f8301126200269b57600080fd5b813567ffffffffffffffff80821115620026b957620026b962002673565b604051601f8301601f19908116603f01168101908282118183101715620026e457620026e462002673565b81604052838152866020858801011115620026fe57600080fd5b836020870160208301376000602085830101528094505050505092915050565b600080604083850312156200273257600080fd5b82359150602083013567ffffffffffffffff8111156200275157600080fd5b6200275f8582860162002689565b9150509250929050565b600080604083850312156200277d57600080fd5b50508035926020909101359150565b6000602082840312156200279f57600080fd5b5035919050565b60008060008060008060c08789031215620027c057600080fd5b863567ffffffffffffffff80821115620027d957600080fd5b620027e78a838b0162002689565b97506020890135915080821115620027fe57600080fd5b6200280c8a838b0162002689565b965060408901359150808211156200282357600080fd5b506200283289828a0162002689565b945050606087013592506080870135915060a087013590509295509295509295565b600081518084526020808501945080840160005b838110156200288f5781516001600160a01b03168752958201959082019060010162002868565b509495945050505050565b60208152620028ae60208201835115159052565b6020820151604082015260006040830151620028d560608401826001600160a01b03169052565b5060608301516001600160a01b038116608084015250608083015160a083015260a083015160c083015260c08301516101a08060e08501526200291d6101c085018362002630565b915060e0850151601f196101008187860301818801526200293f858462002630565b94508088015192505061012081878603018188015262002960858462002630565b9088015161014088810191909152880151610160808901919091528801518782038301610180808a019190915291955092506200299e858462002854565b908801518782039092018488015293509050620029bc838262002854565b9695505050505050565b8015158114620002fc57600080fd5b60008060408385031215620029e957600080fd5b823591506020830135620029fd81620029c6565b809150509250929050565b8b15158152602081018b90526001600160a01b038a81166040830152891660608201526080810188905260a0810187905261016060c0820181905260009062002a548382018962002630565b905082810360e084015262002a6a818862002630565b905082810361010084015262002a81818762002630565b610120840195909552505061014001529998505050505050505050565b600181811c9082168062002ab357607f821691505b60208210810362002ad457634e487b7160e01b600052602260045260246000fd5b50919050565b600080835462002aea8162002a9e565b6001828116801562002b05576001811462002b1b5762002b4c565b60ff198416875282151583028701945062002b4c565b8760005260208060002060005b8581101562002b435781548a82015290840190820162002b28565b50505082870194505b50929695505050505050565b634e487b7160e01b600052601160045260246000fd5b8082018082111562001eb75762001eb762002b58565b601f8211156200204d57600081815260208120601f850160051c8101602086101562002bad5750805b601f850160051c820191505b8181101562002bce5782815560010162002bb9565b505050505050565b81810362002be2575050565b62002bee825462002a9e565b67ffffffffffffffff81111562002c095762002c0962002673565b62002c218162002c1a845462002a9e565b8462002b84565b6000601f82116001811462002c58576000831562002c3f5750848201545b600019600385901b1c1916600184901b17845562002cc0565b600085815260209020601f19841690600086815260209020845b8381101562002c94578286015482556001958601959091019060200162002c72565b508583101562002cb35781850154600019600388901b60f8161c191681555b50505060018360011b0184555b5050505050565b60006020828403121562002cda57600080fd5b5051919050565b60006020828403121562002cf457600080fd5b81516200213b81620029c6565b60008262002d1f57634e487b7160e01b600052601260045260246000fd5b500490565b828152604060208201526000620023a6604083018462002630565b6000825162002d538184602087016200260a565b65102a37b5b2b760d11b920191825250600601919050565b60608152600062002d80606083018562002630565b8281036020840152600381526213cc5560ea1b60208201526040810191505060ff831660408301529392505050565b60608152600062002dc4606083018562002630565b8281036020840152600381526213cc9560ea1b60208201526040810191505060ff831660408301529392505050565b815167ffffffffffffffff81111562002e105762002e1062002673565b62002e218162002c1a845462002a9e565b602080601f83116001811462002e59576000841562002e405750858301515b600019600386901b1c1916600185901b17855562002bce565b600085815260208120601f198616915b8281101562002e8a5788860151825594840194600190910190840162002e69565b508582101562002ea95787850151600019600388901b60f8161c191681555b5050505050600190811b01905550565b600061010080835262002ecf8184018c62002630565b9050828103602084015262002ee5818b62002630565b9050828103604084015262002efb818a62002630565b6001600160a01b0398891660608501529690971660808301525060a081019390935260c083019190915260e090910152949350505050565b634e487b7160e01b600052603260045260246000fd5b60006001820162002f5e5762002f5e62002b58565b5060010190565b7f4173206f6620617373657274696f6e2074696d657374616d702000000000000081526000845162002f9f81601a8501602089016200260a565b7f2c20746865206465736372696265642070726564696374696f6e206d61726b65601a918401918201526d03a1037baba31b7b6b29034b99d160951b603a820152845162002ff58160488401602089016200260a565b7f2e20546865206d61726b6574206465736372697074696f6e2069733a20000000604892909101918201528351620030358160658401602088016200260a565b0160650195945050505050565b6000610120808352620030588184018d62002630565b6001600160a01b039b8c166020850152998b1660408401525050958816606087015267ffffffffffffffff9490941660808601529190951660a084015260c083019490945260e08201939093526101000191909152919050565b8181038181111562001eb75762001eb762002b58565b6000816000190483118215151615620030e557620030e562002b58565b500290565b60ff818116838216019081111562001eb75762001eb762002b58565b600082516200311a8184602087016200260a565b919091019291505056fe60806040523480156200001157600080fd5b5060405162001bf638038062001bf6833981016040819052620000349162000563565b8282600362000044838262000676565b50600462000053828262000676565b50506006805460ff191660ff8416179055506200007360008033620000a5565b6200009060015b60408051600080825260208201909252620001f5565b6200009c60026200007a565b50505062000796565b826000808281526005602052604090206001015460ff166002811115620000d057620000d062000742565b14620001235760405162461bcd60e51b815260206004820152601e60248201527f43616e6e6f74207573652061207072652d6578697374696e6720726f6c65000060448201526064015b60405180910390fd5b60008481526005602052604090206001808201805460ff1916828002179055508381556200016160028201846200033b602090811b62000a3717901c565b60008481526005602052604081206001015460ff1660028111156200018a576200018a62000742565b03620001ee5760405162461bcd60e51b815260206004820152603c602482015260008051602062001bd683398151915260448201527f20746f206d616e61676520616e206578636c757369766520726f6c650000000060648201526084016200011a565b5050505050565b826000808281526005602052604090206001015460ff16600281111562000220576200022062000742565b146200026f5760405162461bcd60e51b815260206004820152601e60248201527f43616e6e6f74207573652061207072652d6578697374696e6720726f6c65000060448201526064016200011a565b600084815260056020908152604090912060018101805460ff1916600217905584815590620002ae906003830190859062000a416200034b821b17901c565b60008481526005602052604081206001015460ff166002811115620002d757620002d762000742565b03620001ee5760405162461bcd60e51b8152602060048201526038602482015260008051602062001bd683398151915260448201527f20746f206d616e61676520612073686172656420726f6c65000000000000000060648201526084016200011a565b620003478282620003a0565b5050565b60005b81518110156200039b57620003868383838151811062000372576200037262000758565b60200260200101516200042160201b60201c565b8062000392816200076e565b9150506200034e565b505050565b6001600160a01b038116620004045760405162461bcd60e51b815260206004820152602360248201527f43616e6e6f742073657420616e206578636c757369766520726f6c6520746f2060448201526203078360ec1b60648201526084016200011a565b81546001600160a01b0319166001600160a01b0391909116179055565b6001600160a01b038116620004795760405162461bcd60e51b815260206004820152601f60248201527f43616e6e6f74206164642030783020746f20612073686172656420726f6c650060448201526064016200011a565b6001600160a01b0316600090815260209190915260409020805460ff19166001179055565b634e487b7160e01b600052604160045260246000fd5b600082601f830112620004c657600080fd5b81516001600160401b0380821115620004e357620004e36200049e565b604051601f8301601f19908116603f011681019082821181831017156200050e576200050e6200049e565b816040528381526020925086838588010111156200052b57600080fd5b600091505b838210156200054f578582018301518183018401529082019062000530565b600093810190920192909252949350505050565b6000806000606084860312156200057957600080fd5b83516001600160401b03808211156200059157600080fd5b6200059f87838801620004b4565b94506020860151915080821115620005b657600080fd5b50620005c586828701620004b4565b925050604084015160ff81168114620005dd57600080fd5b809150509250925092565b600181811c90821680620005fd57607f821691505b6020821081036200061e57634e487b7160e01b600052602260045260246000fd5b50919050565b601f8211156200039b57600081815260208120601f850160051c810160208610156200064d5750805b601f850160051c820191505b818110156200066e5782815560010162000659565b505050505050565b81516001600160401b038111156200069257620006926200049e565b620006aa81620006a38454620005e8565b8462000624565b602080601f831160018114620006e25760008415620006c95750858301515b600019600386901b1c1916600185901b1785556200066e565b600085815260208120601f198616915b828110156200071357888601518255948401946001909101908401620006f2565b5085821015620007325787850151600019600388901b60f8161c191681555b5050505050600190811b01905550565b634e487b7160e01b600052602160045260246000fd5b634e487b7160e01b600052603260045260246000fd5b6000600182016200078f57634e487b7160e01b600052601160045260246000fd5b5060010190565b61143080620007a66000396000f3fe608060405234801561001057600080fd5b506004361061014d5760003560e01c806374d0a676116100c3578063a9059cbb1161007c578063a9059cbb146102be578063aaa14ca3146102d1578063ab3545e5146102e4578063d97c05be1461030f578063dd62ed3e14610322578063f44637ba1461033557600080fd5b806374d0a6761461025757806379cc67901461026a5780637cdc1cb91461027d57806395d89b4114610290578063983b2d5614610298578063a457c2d7146102ab57600080fd5b8063395093511161011557806339509351146101cd57806340c10f19146101e057806342966c68146101f35780636be7658b1461020857806370a082311461021b57806373cc802a1461024457600080fd5b806306fdde0314610152578063095ea7b31461017057806318160ddd1461019357806323b872dd146101a5578063313ce567146101b8575b600080fd5b61015a610348565b60405161016791906110d6565b60405180910390f35b61018361017e366004611140565b6103da565b6040519015158152602001610167565b6002545b604051908152602001610167565b6101836101b336600461116a565b6103f4565b60065460405160ff9091168152602001610167565b6101836101db366004611140565b610418565b6101836101ee366004611140565b61043a565b6102066102013660046111a6565b610477565b005b6102066102163660046111bf565b6104ad565b6101976102293660046111eb565b6001600160a01b031660009081526020819052604090205490565b6102066102523660046111eb565b610583565b6102066102653660046111bf565b610591565b610183610278366004611140565b610667565b61018361028b3660046111bf565b61069b565b61015a610760565b6102066102a63660046111eb565b61076f565b6101836102b9366004611140565b61077b565b6101836102cc366004611140565b6107f6565b6102066102df3660046111a6565b610804565b6102f76102f23660046111a6565b6108c0565b6040516001600160a01b039091168152602001610167565b61020661031d3660046111bf565b61092c565b61019761033036600461120d565b610a02565b6102066103433660046111eb565b610a2d565b60606003805461035790611237565b80601f016020809104026020016040519081016040528092919081815260200182805461038390611237565b80156103d05780601f106103a5576101008083540402835291602001916103d0565b820191906000526020600020905b8154815290600101906020018083116103b357829003601f168201915b5050505050905090565b6000336103e8818585610a87565b60019150505b92915050565b600033610402858285610bab565b61040d858585610c25565b506001949350505050565b6000336103e881858561042b8383610a02565b6104359190611281565b610a87565b60006001610448813361069b565b61046d5760405162461bcd60e51b8152600401610464906112aa565b60405180910390fd5b6103e88484610dc9565b6002610483813361069b565b61049f5760405162461bcd60e51b8152600401610464906112aa565b6104a93383610e88565b5050565b81600260008281526005602052604090206001015460ff1660028111156104d6576104d6611294565b146104f35760405162461bcd60e51b8152600401610464906112ec565b600083815260056020526040902054839061050e903361069b565b61052a5760405162461bcd60e51b815260040161046490611338565b60008481526005602052604090206105459060030184610fba565b60405133906001600160a01b0385169086907feb3e33034c392e69263b04ec0fa376dc12784a41b6676c7f31b936cbc0fbb5af90600090a450505050565b61058e60008261092c565b50565b81600260008281526005602052604090206001015460ff1660028111156105ba576105ba611294565b146105d75760405162461bcd60e51b8152600401610464906112ec565b60008381526005602052604090205483906105f2903361069b565b61060e5760405162461bcd60e51b815260040161046490611338565b60008481526005602052604090206106299060030184610fdc565b60405133906001600160a01b0385169086907f63502af7324ff6db91ab38f8236a648727d9385ea6c782073dd4882d8a61a48f90600090a450505050565b60006002610675813361069b565b6106915760405162461bcd60e51b8152600401610464906112aa565b6103e88484610e88565b600082815260056020526040812060018082015460ff1660028111156106c3576106c3611294565b036106e45760028101546001600160a01b038481169116145b9150506103ee565b6002600182015460ff1660028111156106ff576106ff611294565b03610727576001600160a01b038316600090815260038201602052604090205460ff166106dc565b60405162461bcd60e51b815260206004820152600e60248201526d125b9d985b1a59081c9bdb19525960921b6044820152606401610464565b60606004805461035790611237565b61058e60015b82610591565b600033816107898286610a02565b9050838110156107e95760405162461bcd60e51b815260206004820152602560248201527f45524332303a2064656372656173656420616c6c6f77616e63652062656c6f77604482015264207a65726f60d81b6064820152608401610464565b61040d8286868403610a87565b6000336103e8818585610c25565b80600260008281526005602052604090206001015460ff16600281111561082d5761082d611294565b1461084a5760405162461bcd60e51b8152600401610464906112ec565b81610855813361069b565b6108715760405162461bcd60e51b8152600401610464906112aa565b600083815260056020526040902061088c9060030133610fba565b6040513390819085907feb3e33034c392e69263b04ec0fa376dc12784a41b6676c7f31b936cbc0fbb5af90600090a4505050565b600081600160008281526005602052604090206001015460ff1660028111156108eb576108eb611294565b146109085760405162461bcd60e51b81526004016104649061137c565b6000838152600560205260409020600201546001600160a01b031691505b50919050565b81600160008281526005602052604090206001015460ff16600281111561095557610955611294565b146109725760405162461bcd60e51b81526004016104649061137c565b600083815260056020526040902054839061098d903361069b565b6109a95760405162461bcd60e51b815260040161046490611338565b60008481526005602052604090206109c49060020184611057565b60405133906001600160a01b0385169086907f3b855c56b409b671c7112789d022675eb639d0bcb8896f1b6197c132f799e74690600090a450505050565b6001600160a01b03918216600090815260016020908152604080832093909416825291909152205490565b61058e6002610775565b6104a98282611057565b60005b8151811015610a8257610a7083838381518110610a6357610a636113cb565b6020026020010151610fdc565b80610a7a816113e1565b915050610a44565b505050565b6001600160a01b038316610ae95760405162461bcd60e51b8152602060048201526024808201527f45524332303a20617070726f76652066726f6d20746865207a65726f206164646044820152637265737360e01b6064820152608401610464565b6001600160a01b038216610b4a5760405162461bcd60e51b815260206004820152602260248201527f45524332303a20617070726f766520746f20746865207a65726f206164647265604482015261737360f01b6064820152608401610464565b6001600160a01b0383811660008181526001602090815260408083209487168084529482529182902085905590518481527f8c5be1e5ebec7d5bd14f71427d1e84f3dd0314c0f7b2291e5b200ac8c7c3b925910160405180910390a3505050565b6000610bb78484610a02565b90506000198114610c1f5781811015610c125760405162461bcd60e51b815260206004820152601d60248201527f45524332303a20696e73756666696369656e7420616c6c6f77616e63650000006044820152606401610464565b610c1f8484848403610a87565b50505050565b6001600160a01b038316610c895760405162461bcd60e51b815260206004820152602560248201527f45524332303a207472616e736665722066726f6d20746865207a65726f206164604482015264647265737360d81b6064820152608401610464565b6001600160a01b038216610ceb5760405162461bcd60e51b815260206004820152602360248201527f45524332303a207472616e7366657220746f20746865207a65726f206164647260448201526265737360e81b6064820152608401610464565b6001600160a01b03831660009081526020819052604090205481811015610d635760405162461bcd60e51b815260206004820152602660248201527f45524332303a207472616e7366657220616d6f756e7420657863656564732062604482015265616c616e636560d01b6064820152608401610464565b6001600160a01b03848116600081815260208181526040808320878703905593871680835291849020805487019055925185815290927fddf252ad1be2c89b69c2b068fc378daa952ba7f163c4a11628f55a4df523b3ef910160405180910390a3610c1f565b6001600160a01b038216610e1f5760405162461bcd60e51b815260206004820152601f60248201527f45524332303a206d696e7420746f20746865207a65726f2061646472657373006044820152606401610464565b8060026000828254610e319190611281565b90915550506001600160a01b038216600081815260208181526040808320805486019055518481527fddf252ad1be2c89b69c2b068fc378daa952ba7f163c4a11628f55a4df523b3ef910160405180910390a35050565b6001600160a01b038216610ee85760405162461bcd60e51b815260206004820152602160248201527f45524332303a206275726e2066726f6d20746865207a65726f206164647265736044820152607360f81b6064820152608401610464565b6001600160a01b03821660009081526020819052604090205481811015610f5c5760405162461bcd60e51b815260206004820152602260248201527f45524332303a206275726e20616d6f756e7420657863656564732062616c616e604482015261636560f01b6064820152608401610464565b6001600160a01b0383166000818152602081815260408083208686039055600280548790039055518581529192917fddf252ad1be2c89b69c2b068fc378daa952ba7f163c4a11628f55a4df523b3ef910160405180910390a3505050565b6001600160a01b0316600090815260209190915260409020805460ff19169055565b6001600160a01b0381166110325760405162461bcd60e51b815260206004820152601f60248201527f43616e6e6f74206164642030783020746f20612073686172656420726f6c65006044820152606401610464565b6001600160a01b0316600090815260209190915260409020805460ff19166001179055565b6001600160a01b0381166110b95760405162461bcd60e51b815260206004820152602360248201527f43616e6e6f742073657420616e206578636c757369766520726f6c6520746f2060448201526203078360ec1b6064820152608401610464565b81546001600160a01b0319166001600160a01b0391909116179055565b600060208083528351808285015260005b81811015611103578581018301518582016040015282016110e7565b506000604082860101526040601f19601f8301168501019250505092915050565b80356001600160a01b038116811461113b57600080fd5b919050565b6000806040838503121561115357600080fd5b61115c83611124565b946020939093013593505050565b60008060006060848603121561117f57600080fd5b61118884611124565b925061119660208501611124565b9150604084013590509250925092565b6000602082840312156111b857600080fd5b5035919050565b600080604083850312156111d257600080fd5b823591506111e260208401611124565b90509250929050565b6000602082840312156111fd57600080fd5b61120682611124565b9392505050565b6000806040838503121561122057600080fd5b61122983611124565b91506111e260208401611124565b600181811c9082168061124b57607f821691505b60208210810361092657634e487b7160e01b600052602260045260246000fd5b634e487b7160e01b600052601160045260246000fd5b808201808211156103ee576103ee61126b565b634e487b7160e01b600052602160045260246000fd5b60208082526022908201527f53656e64657220646f6573206e6f7420686f6c6420726571756972656420726f6040820152616c6560f01b606082015260800190565b6020808252602c908201527f4d7573742062652063616c6c6564206f6e20616e20696e697469616c697a656460408201526b2053686172656420726f6c6560a01b606082015260800190565b60208082526024908201527f43616e206f6e6c792062652063616c6c6564206279206120726f6c65206d616e60408201526330b3b2b960e11b606082015260800190565b6020808252602f908201527f4d7573742062652063616c6c6564206f6e20616e20696e697469616c697a656460408201526e204578636c757369766520726f6c6560881b606082015260800190565b634e487b7160e01b600052603260045260246000fd5b6000600182016113f3576113f361126b565b506001019056fea264697066735822122011644e77c362e6d825ab2804b196fef8de52c59ac6104626b1f75ab81c07312764736f6c63430008100033417474656d7074656420746f2075736520616e20696e76616c696420726f6c65a26469706673582212206eff2b5e29c0fcc917249272422fe27866293aa8f25f6b44f5b7d0360a7f148a64736f6c63430008100033",
        "linkReferences": {}
    },
    "methodIdentifiers": {
        "assertContent(bytes32,string)": "372ac631",
        "assertionDisputedCallback(bytes32)": "d448a4ec",
        "assertionLiveness()": "b75d4e24",
        "assertionResolvedCallback(bytes32,bool)": "f1b156b2",
        "asserts(bytes32)": "b50458fe",
        "contents(bytes32)": "f20ca12c",
        "createOutcomeTokens(bytes32,uint256)": "9d5bacfd",
        "currency()": "e5a6b10f",
        "defaultIdentifier()": "d509b017",
        "finder()": "b9a3c84c",
        "getMarket(bytes32)": "c3c95c7b",
        "initializeContent(string,string,string,uint256,uint256,uint256)": "b342f695",
        "oo()": "8921a614",
        "redeemOutcomeTokens(bytes32,uint256)": "9d2edf46",
        "settleOutcomeTokens(bytes32)": "acd98e29",
        "unresolvable()": "0880c65a"
    },
    "id": 21
}